:040000006F00006726
:1000040000000000000000006F0080086F00C022A4
:1000140000000000000000000000000000000000DC
:1000240000000000000000000000000000000000CC
:100034006F004006000000006F00E00500000000B3
:100044006F0080056F0060056F0040056F0020059C
:100054006F0000056F00E0046F00C00400000000A2
:100064006F0060046F0040046F0020046F00000400
:100074006F00E0036F008004000000006F00600365
:100084006F0040036F0020036F0000036F00E00265
:1000940001A001A001A001A001A001A001A001A054
:1000A40001A001A001A001A001A001A001A001A044
:1000B40001A001A001A001A001A001A0B717004068
:1000C40003C7E70562076187635E0702238D0704A0
:1000D40083C681804D47138681806360D7020347BE
:1000E400060083D5C70593161700138781813697B9
:1000F4002310B7000547238DE704834706008507CF
:100104002384F18073002030B717004093067005F4
:100114002380D704130780FA2380E70403C6B704B7
:100124001376F60DA385C70423800704137605020E
:1001340025C603C6A700118A0DE22380D7042380B5
:10014400E70403C7A700136747002385E700930765
:10015400004B01000100FD17EDFFB71700409306A7
:1001640070052380D704130780FA2380E7047D8970
:100174002394A7000100010001000100238007046B
:100184002380D7042380E704854637270040A30350
:10019400D780238007048280137605046DDE03C6AE
:1001A400A700418A0DE22380D7042380E70403C714
:1001B400A700136707012385E7009307007D01006B
:1001C4000100FD17EDFFB71700409306700523806B
:1001D400D704130780FA7D892380E7041365050497
:1001E4002394A700010001000100010023800704FB
:1001F4002380D7042380E7048D463727004041BF7E
:100204004111814601468145014506C6892AB71731
:100214000040130770052380E704130780FA238046
:10022400E70403C76704136717002383E7042380E5
:100234000704B2404101828081460146814501455F
:10024400392AB7170040130770052380E704130702
:1002540080FA2380E7047D572396E70203C76704E7
:10026400136717002383E7042380070401A0BD4715
:100274003305F50201007D1575FD8280411122C40C
:1002840026C206C6AA84014463179400B2402244DD
:1002940092444101828005041305803E4204C13F1B
:1002A4004180DDB72303048095472303F4802302B0
:1002B400A480828083076480E3CE07FE2303048046
:1002C400828083076480E3CE07FE034544808280F6
:1002D40083076480E3CE07FE2302A4808280411159
:1002E40026C44AC24EC006C61377F50BAD47AA8989
:1002F4002E8995446306F70019456D37653F8D4493
:100304004E854D37FD59FD1463983401B240A24423
:100314001249824941018280135509011375F50F71
:10032400453F2209CDB7011126CC06CEB7040800FB
:1003340051371545853F713769372AC6A53F324580
:100344009377150089EB136515001375F50FF240CB
:10035400E24405618280FD14E9FC0145CDBF397199
:1003640026DC4ADA4ED852D656D45AD25ED006DEAD
:1003740062CE66CCB7E700E07D5783AA070022C6A9
:1003840003AA470023A0E71823A2E718B7170040E1
:10039400130770052380E704130780FA2380E7041A
:1003A40083C74704930B75FFB684E20793FBFB0FE7
:1003B4008546AA892E8B328937240040E18701576C
:1003C40063FA76016308D5008946130700026313B4
:1003D400D5000157D98F93F7F70FB71C004023823C
:1003E400FC0411472303E4801305F00F653D094C19
:1003F400D13563697C11B70707003E9B3787070037
:100404007955637EEB02B3079B00636AF702A94741
:100414006399F90689E48144713D26850DA0DA8546
:100424000945753D05090345F9FFFD14050B4D35D7
:1004340081C49377FB0FFDF7FD3569FD7D55B71733
:100444000040130770052380E704130780FA238014
:10045400E70403C74704418B2382E704F250B7E75C
:1004640000E023A0571123A24711E2543244525909
:10047400C259325AA25A125B825B724CE24C21611D
:100484008280A5476395F90685691309F00FB306C1
:100494009900B3742B01B6941349F9FFB37499000E
:1004A400856B33796901416B9387F9FFB3F72701B2
:1004B40099E363FC340193D94900C147E3E637FF6C
:1004C40099BF0569C1697D19D9B71305800D638882
:1004D4006901130500026384790113051008CA85B4
:1004E400FD3B913521DD4E99B3843441D9B7DA858A
:1004F4002D45F533CA94E30099F20509D933A30FC6
:10050400A9FED5BF9387F9FF93F7F70F636CFC0837
:1005140003C75C04B70708001377070219E3B7871A
:1005240007007955E37DFBF033079B00E3E9E7F02F
:1005340089476390F9048980D549E38E04ECDA8510
:100544000945713B11090327C9FF91472320E48022
:1005540003076480E34E07FE23033481FD17EDFB9C
:10056400FD14110B81C49377FB0FE9FF6D3B71F50B
:10057400F1B58547E387F9F4DA852D458D33938901
:10058400F4FFE38A04E8353B93F7390091EB8326C3
:1005940004800327090093074900E39FE6E63E89A8
:1005A400CE84F1BFB5476396F9001305900BDD398E
:1005B4009DB5B1471305B00AE38BF9FE9947639ED5
:1005C400F902DA852D45213B81448D4BA149D5396A
:1005D40063967401832704802320F9008504E3983B
:1005E40034FF8327048013172B016355070023125C
:1005F400F90015B52322F90039BD9D476391F9022D
:1006040081451305B004E1399D44FD595D39B307B3
:1006140099002380A700FD14E39A34FFEDBBA147A2
:100624006392F90409338144630D0B0085479304F5
:1006340040046308FB009304000563048B019304E6
:10064400C0031375C507E30895DC1945A1399D312D
:10065400054589392685AD3909459D39E931E31CBC
:0C06640005DAE9BBE38909DAF1547DB343
:10067000974100209381011F178100201301819869
:1006800013054000973500209385C51717360020C5
:100690001306067E63FAC5008322050023A05500D9
:1006A00011059105E3EAC5FE172500001305C52FC6
:1006B00097450020938505951386818063FAC500D0
:1006C0008322050023A0550011059105E3EAC5FE2C
:1006D000138581809385C1866377B500232005004B
:1006E0001105E36DB5FE9302800873A002309732C6
:1006F00000209382221193E21200739052309702ED
:1007000000009382220E73901234730020303D4318
:100710002A876373C3029377F700BDEFADE5937645
:1007200006FF3D8ABA960CC34CC30CC74CC74107A1
:10073000E36BD7FE11E28280B306C3408A069702BC
:10074000000096966780A6002307B700A306B700AF
:100750002306B700A305B7002305B700A304B7001D
:100760002304B700A303B7002303B700A302B70015
:100770002302B700A301B7002301B700A300B7000D
:100780002300B700828093F5F50F93968500D58DF1
:1007900093960501D58D61B79396270097020000C7
:1007A00096968682E78086FA9680C1171D8F3E96C0
:1007B000E374C3F8A5B7371700408327870A4111B0
:1007C00006C693E707202324F70A85451305001082
:1007D000D5218D4513050020F129B240410119AD05
:1007E0005D711305800486C6A2C4A6C266D26AD013
:1007F000CAC04EDE52DC56DA5AD85ED662D46ECE0D
:1008000097300020E78080107D37B717004083C500
:100810001704172500001305E5E6938C8181EF008E
:10082000B03F17250000130525E7EF00D050DD2E5F
:10083000212EAA84138D01846684352126952310E8
:10084000A4000904E31BA4FF172C0000130C0CE206
:1008500097240000938404E2032B0C00832B4C00AC
:1008600003AA040083AA44009389818101491724C3
:1008700000001304A4E0972D0000938DADE303D88E
:1008800009008909428542C4EF00B02A5A86DE86F3
:10089000592B5286D686412B97270000938707DE77
:1008A0009043D4434923EF0010232248AA86CA85E7
:1008B00042866E85EF0050360509D148E31119FDD7
:1008C000172500001305C5E0EF00F046814513052C
:1008D0000002CD26894501451126BD24AA85AA8995
:1008E00017250000130505E1EF001033B71700408E
:1008F0000547238CE70413898181B5264E95231083
:10090000A9000909E31BA9FF03AA040083AA440064
:10091000032B0400832B4400938981810149972D87
:100920000000938DADDE03D809008909428542C4D9
:10093000EF00302097270000938747D39043D4439C
:10094000DD215286D686C5215A86DE86E929EF004A
:1009500090182248AA86CA8542866E85EF00D02B61
:100960000509D148E31119FD172500001305C5DB62
:10097000EF00703C0565814541052D2E89450145F7
:100980004124B7170040238C070413898181E12C8F
:100990002310A9000909E31CA9FF03AA040083AAE4
:1009A0004400032B0400832B440093898181014977
:1009B000972D0000938D8DD503D8090089094285B4
:1009C00042C4EF00101797270000938727CA90436F
:1009D000D44391295286D686B9215A86DE86A12132
:1009E000EF00700F2248AA86CA8542866E85EF0006
:1009F000B0220509D148E31119FD172500001305A0
:100A0000E5D5EF005033814505656D248124B71786
:100A100000400947238CE7041389818181454145C2
:100A20009D242310A9000909E31AA9FF03290C003A
:100A300083294C0003AA040083AA4400032B04006A
:100A4000832B440093878181014D972D0000938D66
:100A5000EDCB03D707003EC63A853AC4EF00700DD0
:100A60004A86CE86C9265286D686752E5A86DE8658
:100A70005D2EEF0050062247AA86EA853A866E85EB
:100A8000EF009019B247050D51488907E3130DFD9A
:100A900017250000130585CEEF00F02981451305C9
:100AA0000002092C89450145152AB7170040054762
:100AB000238CE70423840180238D0704B7E600E03C
:100AC0003706002023A0C610238DE704938681807B
:100AD0004D4783C70600E37EF7FEB7E700E0B84363
:100AE000C146B4C3B706002023A0D718B8C301007D
:100AF000010003AB040083AB440044400040032AE0
:100B00000C00832A4C000149172D0000130D0DC065
:100B1000514C83D90C00890C4E85EF009001528610
:100B2000D68611265A86DE86FD2C2286A686E52CE0
:100B3000EF00607AAA86CA854E866A850509EF00AD
:100B4000B00DE31889FD01A0B717004083C88705E1
:100B5000194703C89705A38C0704238CE70403C730
:100B6000970593F8F80F1378F80F13679702A38C83
:100B7000E7040547238DE704371700408347A7059F
:100B80009305A705858BFDFB0565C146371700401A
:100B9000054E1303F5FF2380C50103C60500058A32
:100BA0006DFE0356C705FD16C2061346F6FF3376E3
:100BB0006600C182B297E5F283469705A10791834B
:100BC00093F6760F13050580A30CD7041D8D230C17
:100BD00017054205A30C070541858280B717004021
:100BE00003C777051A0592054D8D1377E70F136537
:100BF0003500A38BE7041375F50FA38CA70482803F
:100C0000B717004003C777051A0592054D8D137776
:100C1000E70F13655500A38BE7041375F50FA38C3D
:100C2000A7048280B717004003C777051377E70F43
:100C3000A38BE704130700F8A38DE7043D47238C3B
:100C4000E70413075003A38CE7048280B717004022
:100C500013073002A38CE70403C777051367170057
:100C6000A38BE70482800547B7170040238DE70474
:100C7000371700408347A705858BEDFF0355C70550
:100C800052055181828096057D89C98DB717004034
:100C900093F5F50F0547238AB704238BE70437172D
:100CA000004083476705858BEDFF0355C705520557
:100CB00051818280914763EEB70217270000130726
:100CC00067AF8A05BA959C41BA978287B7170040EB
:100CD00003A7470B1345F5FF698F23AAE70A03A76C
:100CE000070B698F23A8E70A03A7070A798D23A0BA
:100CF000A70A8280B717004083A6470B1347F5FF6A
:100D0000F98E23AAD70A83A6070B558D23A8A70A15
:100D100083A6070A758F23A0E70A8280B7170040D1
:100D200003A7470B498F23AAE70A03A7070B13451D
:100D3000F5FF45BFB717004083A6470B1347F5FFE4
:100D4000758F23AAE70A03A7070A598D4DB7B7176E
:100D5000004003A7470B498FEDB7B717004003D5F5
:100D60008700420541819377050491EB9377F50164
:100D70003755E801130505803345F50282809377E6
:100D8000050C130700046397E7009377F5013745D7
:100D90009C1CCDB72165130505D08280814737376C
:100DA0000040A14663C4C700328582800345B74036
:100DB000E38EA6FE3385F500034505008507230471
:100DC000A740CDB7411122C406C62A8479372947E6
:100DD000B307E502B2408D83B3D78702224495075B
:100DE000B3D7E70237370040C207C1832316F74065
:100DF00041018280716541111305052006C6D9376E
:100E0000B7370040130770F82381E7400D47A381EF
:100E1000E74013070004A380E74005472387E74026
:100E2000B2404101828039714AD813D945014ED66A
:100E300052D456D29399C50006DE22DC26DA5AD067
:100E40005ECE1379F97F2A8A93D9C90093DAF50126
:100E5000630D090E9307F07F6304F9181354D5014D
:100E60008E09B36934013704800033E48900931498
:100E70003500130919C08149814B13D74601139AD4
:100E8000C6001377F77FB285135ACA0013DBF60149
:100E9000630A07109307F07F6303F7049357D601A3
:100EA0000E0A33EA4701130717C0B7078000B3677C
:100EB000FA00931536003A99814833C76A01BD4656
:100EC0003A851308190063E6361717260000130643
:100ED000A68F8A09B29983A60900B2968286B36763
:100EE000CA001309F97F6397071293E92900814526
:100EF0008948E1B701479307F07F37040800814430
:100F00003204D20731807E075D8C598CA285F25065
:100F1000625426854259D254B259225A925A025BDF
:100F2000F24B216182805A853E84AE84C68B89470C
:100F3000638BFB0E8D47E38FFBFA85472A87639A05
:100F4000FB3881470144814465BF33E4A90055CC97
:100F500036C632C46389092A4E85A1212246B2468B
:100F6000AA87130755FF7544938487FF198CB3999B
:100F7000990033548A0033643401B3149A0013D7B0
:100F800046011309D0C0139AC6001377F77F3309BF
:100F9000F9408149814BB285135ACA0013DBF6012F
:100FA000E31A07EEB367CA00A9C7630E0A22528587
:100FB00032C4C52E22462A87930655FFF54793056E
:100FC00087FF958F331ABA00B357F600B3E747018E
:100FD000B315B6003309E9401309D9C08148F1BD02
:100FE00033E4A90001ECA14981441309F07F894B46
:100FF00069B593E9190081458548C1B54E84AA8435
:10100000B1491309F07F8D4B8DBD91498144014950
:10101000854BA5B593E93900D2878D4879BD8947BD
:101020005685E399FBF02A879307F07F01448144BA
:10103000C1BDC16E1386FEFF93D6040113DE050108
:10104000F18CF18D338695023383B60293580601F5
:1010500033059E021A95AA98B382C60363F368000B
:10106000F692C16F1383FFFF33F5670093D3070137
:10107000B3F76800C207337366003E9333069502E8
:1010800093D80801B387A602135F0601B3849302C5
:10109000BE94FA94B38E760263F3F400FE9E416A26
:1010A0009307FAFF935F0401B376F400B3F9F400F9
:1010B0007D8EC1803384D502C209338FD401B299A9
:1010C000CE98B307DE02935E0401B385BF02AE97EC
:1010D000BE9E330EFE0363F3BE00529EC16793852E
:1010E000F7FF33F6BE006D8C4206229693DE0E01AA
:1010F000B305D502769E3385AF0213D40501B386BE
:10110000D302AA96A296B38FF30363F3A600BE9F01
:1011100041657D15B3F7A600C2076D8DAA97B3850B
:101120005800B3B93501FA97B2953384370133B615
:10113000C500B30EC4013385CE0033343401B3B7D8
:10114000E701C18F33BECE0113D406013336C5008B
:101150003E943366CE009394950032947E94B3E42B
:101160006400260493567501B3349000DD81931713
:101170009500CD8C558CDD8C9317740063DB0700D4
:1011800093D7140085889316F401DD8CD58C0580E7
:1011900042899307F93F6357F00893F6740081CEB4
:1011A00093F6F40011466388C60093864400B3B4F6
:1011B00096002694B6849316740063D80600B70789
:1011C00000FFFD177D8C930709409306E07F63CDF8
:1011D000F60E93D634009314D4012604D58C3180B6
:1011E00093F7F77F31BB328532C4652A93065501E8
:1011F000F147130705022246E3D2D7DC6115B31786
:10120000A6008145C1BB712A13075501F14593071B
:1012100005022246B246E3D8E5D461153314AA008C
:101220008144B1BB85469D8EB1E71309E941B3976F
:101230002401B3D4D40033192401B337F000B364CC
:101240009900DD8C93F77400B356D40081CF93F7E7
:10125000F40011466388C70093874400B3B4970035
:10126000A696BE849397860063D8070485470144F9
:10127000814479B113068003E345D6CC7D46E3561D
:10128000D6FA0556B307F640930500023356F4002C
:101290006387B6001309E943B3172401DD8CB33427
:1012A0009000D18C93F67400014499CA93F7F4002E
:1012B00011468146E392C7FA139496003180F606F0
:1012C0008D80D58C81472DB99307F07F01448144EF
:1012D00005B942897DBD93D74501B7061000138734
:1012E000F6FF93F7F77F1306E03F2A886D8F0145DD
:1012F000FD816354F60099C1828082801306E0412B
:101300007D55E34BF6FE130530431D8D7D46558F0D
:10131000634AA6009387D7BE3317F7003355A8005A
:10132000598D828013053041B307F5403355F700DE
:101330008280411106C622C426C205CD9357F541CD
:10134000B3C4A7009D8C2A842685A1289306E0417A
:10135000898EA9477D8093F6F67F63CDA7022D473E
:10136000098FB3D7E4005505B207B394A400B18345
:1013700029A00144814681478144B207D206B18346
:101380007E04D58FC18FB24022442685BE8592440B
:10139000410182805515B397A400B207B1838144FF
:1013A000E9BFC167637EF5029307F00F13070002E0
:1013B00063ECA7009717000093870745AA9703C51A
:1013C00007003305A740828021819717000093878B
:1013D000A743AA9703C5070061473305A74082804A
:1013E000B7070001636EF5006181971700009387CE
:1013F000A741AA9703C5070021473305A74082806C
:1014000041819717000093872740AA9703C50700DB
:1014100041473305A740828039713EDA2ED232D45B
:1014200036D63AD842DC46DE97370020938787C30A
:1014300022CC804326CA06CEAA8409C41C4C99E358
:10144000228535230C4454102686228536C6EF00AB
:101450007017F2406244D24421618280011126CA91
:101460004AC806CE22CC4EC652C4AA842E8901C5D3
:101470001C4D91E3ED299C4C804499E32685C529B8
:10148000971700009387474A631CF402C0408357B4
:10149000C400A18BB1C71C48A1C7FD59294A1C44EF
:1014A00083450900FD17B1E91CC463DE07062286E7
:1014B000A94526854128FD576308F502294535A031
:1014C00097170000938747486314F4008044C1B71E
:1014D0009717000093874743E31BF4FAC04445BFC6
:1014E000A2852685052255D97D55F2406244D24415
:1014F0004249B249224A056182801CC4050963D76A
:101500000700184C63CBE700638945011C40138733
:10151000170018C02380B70059B7228626851D20E2
:10152000E31F35F7D1B71C401387170018C02947B0
:101530002380E70061B7973700209387A7B2AA8579
:10154000884329BF011122CC26CA4AC806CE4EC6FE
:10155000AA842E89328401C51C4D91E3092997176D
:1015600000009387673C6319F406C0401C4C1CC400
:101570008357C400A18BC9C31C48BDCF1C48084079
:101580009379F90F1379F90F1D8D5C486346F500C7
:10159000A2852685752C2DE51C440505FD171CC468
:1015A0001C401387170018C0238037015C486389EB
:1015B000A7008357C400858B81CBA9476316F90028
:1015C000A285268571240DEDF24062444A85D244FD
:1015D0004249B24905618280971700009387C73658
:1015E0006314F400804459B7971700009387C731FC
:1015F000E31EF4F6C0449DBFA285268521203DDD73
:101600007D59D9B74111973700209387A7A526C2E6
:10161000844322C44AC006C62A892E8489C49C4CAD
:1016200099E32685A926971700009387E72F631C67
:10163000F402C0400317C40093170701C18393F657
:101640008700B5EE93F607019DEEA5472320F9002C
:10165000136707042316E4007D55B24022449244E8
:10166000024941018280971700009387E72D631498
:10167000F4008044C1B7971700009387E728E31B65
:10168000F4FAC04445BF918B8DC74C5889C9930764
:1016900044046384F5004A859123232A0402835776
:1016A000C4002322040093F7B7FD2316F4001C485E
:1016B0001CC08357C40093E787002316F4001C481E
:1016C00081EF8357C4001307002093F70728638531
:1016D000E700A2854A85A5218357C40013F71700A8
:1016E00005C75C4823240400B307F0401CCC1C4809
:1016F0000145A5F78317C40013F7070839DF93E7FF
:1017000007042316F40089BF898B014791E35848E9
:1017100018C4F1BF83D7C500011122CC26CA06CE5A
:101720004AC84EC613F78700AA842E8471EFD841A9
:10173000634DE000B841634AE0000145F240624475
:10174000D2444249B2490561828058547DD703A9E9
:1017500004009396370123A0040063DD0606704859
:101760008357C400918B99C75C401D8E5C5899C308
:101770003C401D8E5C540C50814626858297FD5757
:101780000357C400631DF5009440F54763E8D7068E
:10179000B70740208507B3D7D700858BA5C31C4862
:1017A000232204001CC09317370163D80700FD579C
:1017B0006314F5009C4091E368C84C5823A02401B1
:1017C000ADDD930744046384F50026850129232AAF
:1017D0000402A5B70C500146854626850297FD57A1
:1017E0002A86E31FF5F69C40A5DF75476385E70071
:1017F00059476394E70423A0240181B713670704C2
:101800002316E4007D551DBF83A90501E38709F276
:1018100003A905008D8B23A0350133093941014708
:1018200091E3D84918C4E35A20F11C540C50CA86DD
:101830004E86268582976349A0008357C40093E7AC
:1018400007042316F4007DBFAA993309A940E1BF1C
:101850009C49B9CF011122CC06CE2A8411C51C4D5A
:1018600081E72EC62922B245971700009387C70B40
:10187000639BF5004C408397C50095C72285624461
:10188000F240056141BD971700009387E70B639411
:10189000F5000C44CDB7971700009387E706E39C4B
:1018A000F5FC4C44C9BFF2406244014505618280A9
:1018B00001458280411122C406C62A842316B50040
:1018C0002317C5002320050023220500232405003B
:1018D0002322050623280500232A0500232C0500C2
:1018E000214681451305C505EFE07FE2971700000B
:1018F000938767B45CD0971700009387C7B61CD452
:1019000097170000938707BB5CD497170000938755
:10191000C7BD00D01CD8B240224441018280970547
:101920000000938525F389AA411126C2130680067B
:101930009384F5FFB384C4024AC02E8922C406C62C
:101940009385440781262A8401CD23200500232284
:101950002501310508C4138684068145EFE03FDB8D
:101960002285B240224492440249410182801C4DAA
:10197000BDE3411106C622C497070000938767FAAA
:101980001CD5971700009387E7019C432324050487
:1019900023260504232805046314F50085471CCD80
:1019A0002A841D2848C02285052808C422852D20A8
:1019B00048C4484001469145F53D08440546A545C3
:1019C000D53D48440946C945F53585471CCCB2404C
:1019D0002244410182808280411197170000938741
:1019E00067FC26C284434AC006C69C4C22C42A898E
:1019F00099E32685AD3F938484048044DC40FD1741
:101A000063D607009C40B9CF8440C5BF0317C4000C
:101A100039E7C17785072322040623200400232207
:101A20000400232404005CC423280400232A0400A7
:101A3000232C0400214681451305C405EFE03FCD6A
:101A4000232A0402232C040223240404232604044E
:101A50002285B2402244924402494101828013040B
:101A6000840671BF91454A85C13588C051FDB14793
:101A70002320F9000144E9BF797122D44AD052CC25
:101A800056CA5AC85EC606D626D24ECE2A8AAE8A14
:101A9000130485040149054BFD5B09ECB250225447
:101AA0004A8592540259F249624AD24A424BB24B99
:101AB00045618280044483294400FD1963D40900F0
:101AC0000040E1BF83D7C400637BFB008397E40041
:101AD00063877701A6855285829A3369A90093842A
:101AE0008406E1BF1971A6DAAE848395E500A2DC15
:101AF00086DE328463DC050083D7C40023A00600A1
:101B000093F7070885E7930700401DA0300836C605
:101B1000EF003023B246E34105FE7247BD67F98FFF
:101B20007977BA9793B717009CC2F1BF9307000467
:101B30001CC0F6506654D65401450961828083D793
:101B4000C500011122CC06CE26CA4AC8898B2E8434
:101B500089CF930774041CC01CC885475CC8F24039
:101B60006244D24442490561828074003000AA84F4
:101B7000953FA2452A892685312201ED8317C400AD
:101B800013F7072069FFF19B93E727002316F40062
:101B9000C9B7970700009387C7D89CD48357C40060
:101BA00008C008C893E707082316F400A2475CC8DA
:101BB000B24791CF8315E4002685EF00301B01C9A1
:101BC0008357C400F19B93E717002316F400835753
:101BD000C4003369F9002316240151B7DDC183A77E
:101BE000C5FF411122C406C626C21384C5FF63D3B4
:101BF00007003E94AA84EF00501E9387C1809C4347
:101C000081EF2322040023A681802244B24026854E
:101C1000924441016F00901C637EF400144033072E
:101C2000D4006396E7009843DC43369718C05CC045
:101C3000D9BFBA87D84319C3E37DE4FE9443338602
:101C4000D700631F86001040B29694C33386D70036
:101C5000E31DC7FA10435843B29694C3D8C375B76F
:101C60006375C400B1479CC04DB71040B306C400B3
:101C70006316D70014435843B29614C058C0C0C36B
:101C800069B78280011126CA93843500F19806CE87
:101C900022CC4AC84EC6A104B14763F3F404B14450
:101CA00063E2B4042A89EF0050139387C1809843FC
:101CB0003A8439E0938701819C4391E781454A85C5
:101CC000A92723A8A180A6854A858127FD596319E4
:101CD0003507B1472320F9004A85EF00301029A0CD
:101CE000E3D004FCB1471CC10145F2406244D24438
:101CF0004249B249056182801C40858F63CF07024B
:101D0000AD4663F6F6001CC03E9404C031A05C40B2
:101D10006313870223A6F1804A85EF00300C130578
:101D2000B4009307440061993307F5405DDF3A94AE
:101D3000898F1CC05DBF5CC3C5B72287404095BF7B
:101D4000130435007198E30285FCB305A4404A856D
:101D50006D2DE31C35FBB5BF1C46FD171CC663DAB1
:101D60000700184E63C5E700A9476394F5006FF0BC
:101D70006FFD1C422E851387170018C22380B70001
:101D80008280011122CC26CA4AC84EC652C406CE51
:101D90002A89AE893284B304D6007D5A6314940034
:101DA000014509A8834504004E864A857537050418
:101DB000E31645FFF2406244D2444249B249224A06
:101DC00005618280357122CD26CB4AC94EC706CF28
:101DD00052C556C35AC1DEDEE2DCE6DAAA89AE8419
:101DE0003289368401C51C4D91E3513697170000A6
:101DF000938787B3639BF40C83A4490083D7C40003
:101E0000A18BF5C79C48E5C793070002A304F10224
:101E10009307000302D22305F10222C6930B50025E
:101E2000971A0000938A4AB4054C294B4A84834789
:101E3000040099C36390770FB30C2441638D0C00A9
:101E4000E6864A86A6854E852D3FFD576306F51E1C
:101E50009256E69636D283470400638F071CFD57DF
:101E60001309140002C802CE3ECA02CCA309010421
:101E700082D4834509001546568599271304190015
:101E8000C24759E913F7070109C713070002A3095D
:101E9000E10413F7870009C71307B002A309E1049F
:101EA000834609001307A0026380E608F2474A84CC
:101EB000814625460347040093051400130707FDD8
:101EC0006379E60AB5CA3ECE85A8971700009387C6
:101ED000A7A76395F40083A489000DB797170000A6
:101EE000938787A2E39CF4F083A4C90001BFA68571
:101EF0004E85EFF02FF109D97D55FA406A44DA4456
:101F00004A49BA492A4A9A4A0A4BF65B665CD65C49
:101F10000D618280050421BF330555413315AC00A6
:101F2000C98F3EC82289B1B732479306470018438C
:101F300036C6634907023ACE034704009307E0021E
:101F4000631FF704034714009307A002631BF70203
:101F5000B2470904138747009C433AC663C107028E
:101F60003ECA35A83307E04093E727003ACE3EC883
:101F7000E1B7B387670385462E84BA9725BFFD571F
:101F8000C5B7050402CA81468147254603470400B8
:101F900093051400130707FD6376E606F1F2834507
:101FA00004000D46171500001305859C112D11CD59
:101FB000971700009387C79B1D8D93070004B39765
:101FC000A700424505045D8D2AC8834504001946D3
:101FD000171500001305059A130914002304B10214
:101FE000C5233DC197E7FFFF9387C70195E74247A8
:101FF000B2471377071009CF91073EC69257D29781
:102000003ED22DB5B387670385462E84BA97BDBFF0
:102010009D07E19BA107D5B778009706000093863E
:1020200086D626860C084E8597000000E700000043
:10203000FD572A8AE314F5FC83D7C40093F70704FD
:10204000E39C07EA125555BD780097060000938679
:1020500086D326860C084E85012AD9BF797156CAC7
:102060009C49BA8A984522D426D24ECE52CC06D666
:102070004AD05AC85EC6AA892E84B284368A63D3EF
:10208000E700BA879CC00347340419C385079CC086
:102090001C4093F7070281C79C4089079CC0032915
:1020A000040013796900631A0900130B9401FD5BA6
:1020B0005C449840998F634CF9041C408346340477
:1020C00093F70702B336D000A5EB13063404D2858C
:1020D0004E85829AFD576303F5041C4011469840D3
:1020E000998B544481446397C700B384E64063D31B
:1020F000040081441C4418486354F700998FBE942F
:10210000014969047D5B63982405014509A885465A
:102110005A86D2854E85829A631E75017D55B250CE
:10212000225492540259F249624AD24A424BB24B6B
:10213000456182800509ADBF3307D4001306000353
:10214000A301C7040347540493871600A297890686
:10215000A381E7049DBF85462286D2854E85829A5B
:10216000E30E65FB050945B7797122D426D24AD022
:102170004ECE06D652CC56CA5AC8B68983C68501F9
:102180009307E0063289AA842E841386350463807F
:10219000F61E63E2D706930730066382F60A63ED04
:1021A000D700638A061E930780056386F616930A96
:1021B00024042301D40469A8930740066386F6002B
:1021C00093079006E395F6FE1C40084393F6070834
:1021D00093054500C1C21C410CC363D80700130717
:1021E000D002B307F040A301E404970600009386F1
:1021F000E678294765A0930730076382F61A63EFF4
:10220000D7009307F006638FF60493070007E39067
:10221000F6FA9C4193E707029CC109A8930750076F
:102220006382F60493078007E393F6F89307800729
:10223000A302F4049706000093868675DDA01C4374
:10224000938A2504938647009C4314C32381F50495
:102250008547ADA293F607041C410CC3BDDEC2073F
:10226000C187A5BF0C401C4313F805081385470020
:102270006305080008C39C4339A093F5050408C30F
:10228000FDD983D707001307F006638AE60C97068B
:1022900000009386A66E2947A30104044C400CC499
:1022A00063C5050008406D9908C099E3B28A91CDD5
:1022B000B28AB3F5E702FD1AB69583C505002380FF
:1022C000BA00B3D5E70263F2E70AA147631EF7003D
:1022D0001C40858B91CB58401C4863C7E70093078F
:1022E0000003A38FFAFEFD1A3306564110C84E872D
:1022F000CA867000A285268595337D5A6314450DE4
:102300007D55B250225492540259F249624AD24A3F
:10231000424B45618280A382D504970600009386D4
:10232000E6650C40084313F805081C4111056300DD
:10233000080208C313F7150001C793E505020CC096
:102340004147B9FB0C4093F5F5FD0CC0B1B713F84C
:10235000050408C3E30008FEC207C183E1BF970676
:1023600000009386A661214705BFAE8799B79441C7
:102370001C43CC4913F80608138547006306080080
:1023800008C39C438CC301A808C393F606049C436E
:10239000F5DA2390B70023280400B28A89BF1C43D2
:1023A000D04181459386470014C383AA0700568510
:1023B000012C01C53305554148C05C401CC8A30130
:1023C000040435B714485686CA8526858299E309E0
:1023D00045F31C40898B8DE7B2474844E353F5F23F
:1023E0003E8505B785465686CA8526858299E309C6
:1023F00065F1050A5C443247998FE345FAFEE9BF6F
:10240000014A930A94017D5BF5B7411122C42A84E5
:102410002E8523A4018606C63D24FD576317F500CB
:10242000938781869C4391C31CC0B24022444101E2
:102430008280411122C42E848395E50006C6452280
:10244000634905007C48AA977CC8B24022444101F8
:1024500082808357C4007D777D17F98F2316F4009F
:10246000EDB783D7C500011122CC26CA4AC84EC693
:1024700006CE93F70710AA842E843289B68991C7B5
:102480008395E5008946014631228357C4007D7754
:102490007D17F98F2316F4008315E4006244F2409F
:1024A000CE864A86B24942492685D24405613DA876
:1024B000411122C42E848395E50006C6E128FD570C
:1024C0000357C400631BF500FD77FD17F98F231632
:1024D000F400B2402244410182808567D98F2316DF
:1024E000F40068C8FDB78395E50005A8411122C432
:1024F0002A842E85B285368623A4018606C6EFE09F
:10250000FF89FD576317F500938781869C4391C32C
:102510001CC0B240224441018280411122C42A845D
:102520002E8523A4018606C6CD20FD576317F5002E
:10253000938781869C4391C31CC0B24022444101D1
:102540008280411122C42A842E85B28523A401866B
:1025500006C6D120FD576317F500938781869C43FB
:1025600091C31CC0B240224441018280411122C467
:102570002A842E8523A4018606C66520FD5763178D
:10258000F500938781869C4391C31CC0B2402244CE
:1025900041018280411122C42A842E85B28536866B
:1025A00023A4018606C66120FD576317F5009387B3
:1025B00081869C4391C31CC0B24022444101828069
:1025C00093F5F50F2A966314C50001458280834771
:1025D0000500E38DB7FE0505FDB7828082804111BD
:1025E00022C42A842E85B285368623A4018606C697
:1025F000A920FD576317F500938781869C4391C3FB
:102600001CC0B2402244410182809307800523A46C
:10261000F1867D5582809307800523A4F1867D5540
:1026200082809307800523A4F18601458280930769
:10263000800523A4F1867D5582809307800523A41D
:10264000F1867D558280938741819C4391C73E9559
:1026500023AAA1803E8582809387C1863E9523AAC6
:10266000A1803E85828000006666666666660A40D6
:102670000000000000005940000000000000303F52
:10268000537461727420404368697049443D253039
:1026900032580A000A312E54656D70657261747586
:1026A00072652073616D706C696E672E2E2E00004E
:1026B000616263427566665B25645D203D2025642A
:1026C0002055203D2025640A000000000A322E20FB
:1026D0005041342053696E676C65206368616E6E8B
:1026E000656C2073616D706C696E672E2E2E000014
:1026F000526F75676843616C69625F56616C75659E
:10270000203D2564200A0000616263427566665BB5
:1027100025645D203D2025642C2055203D20256426
:102720000A0000000A332E205041342841494E301F
:1027300029A1A2504131322841494E322920446911
:102740006666206368616E6E656C2073616D706C87
:10275000696E672E2E2E00000A342E205041313231
:1027600020546F7563684B65792073616D706C6977
:102770006E672E2E2E0000000A352E205041352087
:1027800053696E676C65206368616E6E656C20735B
:10279000616D706C696E6720696E20696E74657218
:1027A00072757074206D6F64652E2E2E000000000F
:1027B0001CE5FFFF44E5FFFF6CE5FFFF84E5FFFF3D
:1027C0009EE5FFFF6EE8FFFF64E7FFFF64E7FFFFA2
:1027D00062E7FFFF6AE7FFFF6AE7FFFF30E7FFFFFF
:1027E00062E7FFFF6AE7FFFF30E7FFFF6AE7FFFFEF
:1027F00062E7FFFF5AE8FFFF5AE8FFFF5AE8FFFFD2
:1028000030E7FFFF00010202030303030404040492
:10281000040404040505050505050505050505056C
:10282000050505050606060606060606060606064C
:102830000606060606060606060606060606060638
:10284000060606060707070707070707070707071C
:102850000707070707070707070707070707070708
:1028600007070707070707070707070707070707F8
:1028700007070707070707070707070707070707E8
:1028800007070707080808080808080808080808CC
:1028900008080808080808080808080808080808B8
:1028A00008080808080808080808080808080808A8
:1028B0000808080808080808080808080808080898
:1028C0000808080808080808080808080808080888
:1028D0000808080808080808080808080808080878
:1028E0000808080808080808080808080808080868
:1028F0000808080808080808080808080808080858
:1029000008080808000000000000000000000000A7
:1029100000000000000000000000000000000000B7
:1029200000000000000000000000000000000000A7
:102930000000000000000000000000000000000097
:102940000000000000000000000000000000000087
:102950000000000000000000000000000000000077
:1029600000000000232D302B20000000686C4C007C
:1029700065666745464700003031323334353637B7
:10298000383941424344454600000000303132337B
:10299000343536373839616263646566000000009B
:0429A00000400020D3
:1029A400000000002429000044290000042900003C
:1029B4000000000000000000000000000000000013
:1029C4000000000000000000000000000000000003
:1029D40000000000000000000000000000000000F3
:1029E40000000000000000000000000000000000E3
:1029F40000000000000000000000000000000000D3
:082A040000400020000000006A
:00000001FF
