:040000006F004062EB
:1000040000000000000000006F0080086F00001E68
:1000140000000000000000000000000000000000DC
:1000240000000000000000000000000000000000CC
:100034006F004006000000006F00E00500000000B3
:100044006F0080056F0060056F0040056F0020059C
:100054006F0000056F00E0046F00C00400000000A2
:100064006F0060046F0040046F0020046F00000400
:100074006F00E0036F00C003000000006F00600326
:100084006F0040036F0020036F0000036F00E00265
:1000940001A001A001A001A001A001A001A001A054
:1000A40001A001A001A001A001A001A001A001A044
:1000B40001A001A001A001A001A001A0B717004068
:1000C400930670052380D704130780FA2380E7047E
:1000D40003C6B7041376F60DA385C704238007046B
:1000E4001376050225C603C6A700118A0DE22380F4
:1000F400D7042380E70403C7A700136747002385B9
:10010400E7009307004B01000100FD17EDFFB7174F
:100114000040930670052380D704130780FA2380D8
:10012400E7047D892394A700010001000100010078
:10013400238007042380D7042380E70485463727D8
:100144000040A303D780238007048280137605042C
:100154006DDE03C6A700418A0DE22380D704238005
:10016400E70403C7A700136707012385E700930784
:10017400007D01000100FD17EDFFB7170040930655
:1001840070052380D704130780FA7D892380E70450
:10019400136505042394A700010001000100010078
:1001A400238007042380D7042380E7048D46372760
:1001B400004041BF4111814601468145014506C6C3
:1001C400892AB7170040130770052380E704130733
:1001D40080FA2380E70403C76704136717002383A7
:1001E400E70423800704B24041018280814601462E
:1001F40081450145392AB71700401307700523804C
:10020400E704130780FA2380E7047D572396E70267
:1002140003C76704136717002383E70423800704D5
:1002240001A0BD473305F50201007D1575FD8280EF
:10023400411122C426C206C6AA840144631794004D
:10024400B240224492444101828005041305803E59
:100254004204C13F4180DDB7230304809547230353
:10026400F4802302A480828083076480E3CE07FEA7
:1002740023030480828083076480E3CE07FE034562
:100284004480828083076480E3CE07FE2302A48037
:100294008280411126C44AC24EC006C61377F50BAC
:1002A400AD47AA892E8995446306F70019456D3731
:1002B400653F8D444E854D37FD59FD1463983401D7
:1002C400B240A24412498249410182801355090176
:1002D4001375F50F453F2209CDB7011126CC06CE83
:1002E400B704080051371545853F713769372AC669
:1002F400A53F32459377150089EB136515001375F7
:10030400F50FF240E24405618280FD14E9FC0145E9
:10031400CDBF397126DC4ADA4ED852D656D45AD2D9
:100324005ED006DE62CE66CCB7E700E07D5783AAD6
:10033400070022C603AA470023A0E71823A2E71850
:10034400B7170040130770052380E704130780FAEA
:100354002380E70483C74704930B75FFB684E20741
:1003640093FBFB0F8546AA892E8B328937240040E4
:10037400E187015763FA76016308D50089461307BC
:1003840000026313D5000157D98F93F7F70FB71CF9
:1003940000402382FC0411472303E4801305F00F7B
:1003A400653D094CD13563697C11B70707003E9B55
:1003B400378707007955637EEB02B3079B00636AB6
:1003C400F702A9476399F90689E48144713D2685BA
:1003D4000DA0DA850945753D05090345F9FFFD14AE
:1003E400050B4D3581C49377FB0FFDF7FD3569FD92
:1003F4007D55B7170040130770052380E7041307E2
:1004040080FA2380E70403C74704418B2382E7046F
:10041400F250B7E700E023A0571123A24711E2549A
:1004240032445259C259325AA25A125B825B724CFC
:10043400E24C21618280A5476395F9068569130919
:10044400F00FB3069900B3742B01B6941349F9FF66
:10045400B3749900856B33796901416B9387F9FF14
:10046400B3F7270199E363FC340193D94900C147E9
:10047400E3E637FF99BF0569C1697D19D9B713054B
:10048400800D6388690113050002638479011305F3
:100494001008CA85FD3B913521DD4E99B384344162
:1004A400D9B7DA852D45F533CA94E30099F20509E5
:1004B400D933A30FA9FED5BF9387F9FF93F7F70F9D
:1004C400636CFC0803C75C04B707080013770702D2
:1004D40019E3B78707007955E37DFBF033079B00E9
:1004E400E3E9E7F089476390F9048980D549E38E0D
:1004F40004ECDA850945713B11090327C9FF9147CB
:100504002320E48003076480E34E07FE2303348141
:10051400FD17EDFBFD14110B81C49377FB0FE9FF6D
:100524006D3B71F5F1B58547E387F9F4DA852D451F
:100534008D339389F4FFE38A04E8353B93F739005C
:1005440091EB832604800327090093074900E39F66
:10055400E6E63E89CE84F1BFB5476396F9001305FC
:10056400900BDD399DB5B1471305B00AE38BF9FE55
:100574009947639EF902DA852D45213B81448D4BD1
:10058400A149D53963967401832704802320F90097
:100594008504E39834FF8327048013172B016355E4
:1005A40007002312F90015B52322F90039BD9D4730
:1005B4006391F90281451305B004E1399D44FD5965
:1005C4005D39B30799002380A700FD14E39A34FF33
:1005D400EDBBA1476392F90409338144630D0B0019
:1005E4008547930440046308FB00930400056304F7
:1005F4008B019304C0031375C507E30895DC194503
:10060400A1399D31054589392685AD3909459D397D
:10061400E931E31C05DAE9BBE38909DAF1547DB376
:10062400974100209381C123178100201301419D2C
:1006340013054000973500209385851C173600204C
:100644001306067E63FAC5008322050023A0550025
:1006540011059105E3EAC5FE17250000130585A7DA
:10066400974500209385C5991386818063FAC50058
:100674008322050023A0550011059105E3EAC5FE78
:1006840013858180938581C16377B500232005009C
:100694001105E36DB5FE9302800873A00230973212
:1006A40000209382E21593E2120073905230970275
:1006B40000009382220E73901234730020303D4365
:1006C4002A876373C3029377F700BDEFADE5937692
:1006D40006FF3D8ABA960CC34CC30CC74CC74107EE
:1006E400E36BD7FE11E28280B306C3408A06970209
:1006F400000096966780A6002307B700A306B700FC
:100704002306B700A305B7002305B700A304B70069
:100714002304B700A303B7002303B700A302B70061
:100724002302B700A301B7002301B700A300B70059
:100734002300B700828093F5F50F93968500D58D3D
:1007440093960501D58D61B7939627009702000013
:1007540096968682E78086FA9680C1171D8F3E960C
:10076400E374C3F8A5B7371700408327870A4111FC
:1007740006C693E707202324F70A854513050010CE
:10078400252E8D4513050020052EB2404101ADA153
:1007940001111305800406CE22CC26CA4AC84EC6CF
:1007A40052C497300020E7806011753FB7170040AE
:1007B40083C5170417150000130585781389418133
:1007C400AD21814601468145214597300020E780CF
:1007D4004034171500001305E577712B9306401F6D
:1007E4001386418181452D4597300020E780603292
:1007F4008144171A0000130AEA769309401F4A84B9
:10080400B307990083C50700528585043929E39904
:1008140034FF2945A9298566014681452545973038
:100824000020E780002F9375F50F171500001305BE
:10083400E573E52E171500001305C5712D2B9306DE
:10084400401F1386418181452D4597300020E78064
:10085400402C8144971900009389C9701309401FE3
:10086400B307940083C507004E8585047D2EE39964
:1008740024FF2945ED2E81471307401FB306F400DA
:100884002380F6008507E39BE7FE9306401F13864B
:1008940041818145294597300020E7808027937561
:1008A400F50F171500001305A56D41261715000057
:1008B4001305456AC9219306401F1386418181456A
:1008C4002D4597300020E780C0248144971900000B
:1008D400938949691309401FB307940083C507002E
:1008E4004E8585049926E39924FF29454926171541
:1008F40000001305256A4121814613864181814503
:100904001D4597300020E780C020814497190000DE
:10091400938949652149B307940083C507004E852F
:1009240085042126E39924FF294591261715000003
:10093400130585678921B7F5070081461386418130
:10094400E105194597300020E780A01C81449719E0
:100954000000938929611949B307940083C50700EE
:100964004E858504D924E39924FF294509261715C2
:1009740000001305A5640121130600089385418135
:100984001565292A8144971900009389A95D1309E3
:100994000008B307940083C507004E8585047124BD
:1009A400E39924FF2945E1248566014695650545BB
:1009B40097300020E780E0159375F50F17150000B8
:1009C400130505619D24171500001305255F652691
:1009D40013060008938541811565C9208144971940
:1009E40000009389295813090008B307940083C5AC
:1009F40007004E858504152CE39924FF2945852C91
:100A040013874181930700079306000F2300F70023
:100A1400850793F7F70F0507E39AD7FE93060008B7
:100A2400138641819565094597300020E780600E63
:100A34009375F50F171500001305055BFD2293064A
:100A440000081386418195650D4597300020E780A5
:100A5400400C9375F50F171500001305255AF12264
:100A6400171500001305C55A392613060008938587
:100A74004181156525208144971900009389894E89
:100A840013090008B307940083C507004E85850445
:100A9400692AE39924FF2945D92A01A00D06719AF0
:100AA40081473307F5006393C7008280144333877B
:100AB400F500910714C3F5B7914763EEB702171712
:100AC40000001307E7558A05BA959C41BA978287B7
:100AD400B717004003A7470B1345F5FF698F23AAF7
:100AE400E70A03A7070B698F23A8E70A03A7070AE6
:100AF400798D23A0A70A8280B717004083A6470BED
:100B04001347F5FFF98E23AAD70A83A6070B558D41
:100B140023A8A70A83A6070A758F23A0E70A828061
:100B2400B717004003A7470B498F23AAE70A03A777
:100B3400070B1345F5FF45BFB717004083A6470BC6
:100B44001347F5FF758F23AAE70A03A7070A598DF0
:100B54004DB7B717004003A7470B498FEDB7B71739
:100B6400004003D58700420541819377050491EB4A
:100B74009377F5013755E801130505803345F502F0
:100B840082809377050C130700046397E70093773B
:100B9400F50137459C1CCDB72165130505D082802E
:100BA400814737370040A14663C4C700328582803D
:100BB4000345B740E38EA6FE3385F50003450500E3
:100BC40085072304A740CDB7411122C406C62A8451
:100BD40079372947B307E502B2408D83B3D787023B
:100BE40022449507B3D7E70237370040C207C183D1
:100BF4002316F740410182807165411113050520D8
:100C040006C6D937B7370040130770F82381E74089
:100C14000D47A381E74013070004A380E74005477D
:100C24002387E740B2404101828039713EDA2ED2F7
:100C340032D436D63AD842DC46DE97370020938742
:100C4400274222CC804326CA06CEAA8409C41C4C5F
:100C540099E32285A92B0C4454102686228536C696
:100C6400EF00101BF2406244D244216182800111E2
:100C7400973700209387C73E22CC804306CEAA85AF
:100C840019C41C4C89E72AC622851523B245104491
:100C940022856244F24005616F00107C011126CA6E
:100CA4004AC806CE22CC4EC652C4AA842E8901C597
:100CB4001C4D91E3ED299C4C804499E32685C5297C
:100CC4009717000093870739631CF402C0408357C9
:100CD400C400A18BB1C71C48A1C7FD59294A1C44B3
:100CE40083450900FD17B1E91CC463DE07062286AB
:100CF400A94526854128FD576308F502294535A0F5
:100D040097170000938707376314F4008044C1B732
:100D14009717000093870732E31BF4FAC04445BFDA
:100D2400A2852685052255D97D55F2406244D244D8
:100D34004249B249224A056182801CC4050963D72D
:100D44000700184C63CBE700638945011C401387F7
:100D5400170018C02380B70059B7228626851D20A6
:100D6400E31F35F7D1B71C401387170018C0294774
:100D74002380E70061B7973700209387672EAA8501
:100D8400884329BF011122CC26CA4AC806CE4EC6C2
:100D9400AA842E89328401C51C4D91E30929971731
:100DA40000009387272B6319F406C0401C4C1CC415
:100DB4008357C400A18BC9C31C48BDCF1C4808403D
:100DC4009379F90F1379F90F1D8D5C486346F5008B
:100DD400A2852685752C2DE51C440505FD171CC42C
:100DE4001C401387170018C0238037015C486389AF
:100DF400A7008357C400858B81CBA9476316F900EC
:100E0400A285268571240DEDF24062444A85D244C0
:100E14004249B2490561828097170000938787256C
:100E24006314F400804459B7971700009387872010
:100E3400E31EF4F6C0449DBFA285268521203DDD36
:100E44007D59D9B74111973700209387672126C26E
:100E5400844322C44AC006C62A892E8489C49C4C71
:100E640099E32685A926971700009387A71E631C7C
:100E7400F402C0400317C40093170701C18393F61B
:100E84008700B5EE93F607019DEEA5472320F900F0
:100E9400136707042316E4007D55B24022449244AC
:100EA400024941018280971700009387A71C6314AD
:100EB400F4008044C1B7971700009387A717E31B7A
:100EC400F4FAC04445BF918B8DC74C5889C9930728
:100ED40044046384F5004A859123232A040283573A
:100EE400C4002322040093F7B7FD2316F4001C4822
:100EF4001CC08357C40093E787002316F4001C48E2
:100F040081EF8357C4001307002093F707286385F4
:100F1400E700A2854A85A5218357C40013F717006B
:100F240005C75C4823240400B307F0401CCC1C48CC
:100F34000145A5F78317C40013F7070839DF93E7C2
:100F440007042316F40089BF898B014791E35848AD
:100F540018C4F1BF83D7C500011122CC26CA06CE1E
:100F64004AC84EC613F78700AA842E8471EFD8416D
:100F7400634DE000B841634AE0000145F240624439
:100F8400D2444249B2490561828058547DD703A9AD
:100F940004009396370123A0040063DD060670481D
:100FA4008357C400918B99C75C401D8E5C5899C3CC
:100FB4003C401D8E5C540C50814626858297FD571B
:100FC4000357C400631DF5009440F54763E8D70652
:100FD400B70740208507B3D7D700858BA5C31C4826
:100FE400232204001CC09317370163D80700FD5760
:100FF4006314F5009C4091E368C84C5823A0240175
:10100400ADDD930744046384F50026850129232A72
:101014000402A5B70C500146854626850297FD5764
:101024002A86E31FF5F69C40A5DF75476385E70034
:1010340059476394E70423A0240181B71367070485
:101044002316E4007D551DBF83A90501E38709F23A
:1010540003A905008D8B23A03501330939410147CC
:1010640091E3D84918C4E35A20F11C540C50CA86A1
:101074004E86268582976349A0008357C40093E770
:1010840007042316F4007DBFAA993309A940E1BFE0
:101094009C49B9CF011122CC06CE2A8411C51C4D1E
:1010A40081E72EC62922B24597170000938787FA55
:1010B400639BF5004C408397C50095C72285624425
:1010C400F240056141BD971700009387A7FA639426
:1010D400F5000C44CDB7971700009387A7F5E39C60
:1010E400F5FC4C44C9BFF24062440145056182806D
:1010F40001458280411122C406C62A842316B50004
:101104002317C500232005002322050023240500FE
:101114002322050623280500232A0500232C050085
:10112400214681451305C505EFF06FD997170000D7
:101134009387A7BD5CD097170000938707C01CD482
:1011440097170000938747C45CD4971700009387D0
:1011540007C700D01CD8B2402244410182809705C1
:101164000000938525F389AA411126C2130680063F
:101174009384F5FFB384C4024AC02E8922C406C6F0
:1011840093854407A1262A8401CD23200500232228
:101194002501310508C4138684068145EFF02FD25A
:1011A4002285B240224492440249410182801C4D6E
:1011B400BDE3411106C622C497070000938767FA6E
:1011C4001CD5971700009387A7F09C43232405049C
:1011D40023260504232805046314F50085471CCD44
:1011E4002A841D2848C02285052808C422852D206C
:1011F40048C4484001469145F53D08440546A54587
:10120400D53D48440946C945F53585471CCCB2400F
:101214002244410182808280411197170000938704
:1012240027EB26C284434AC006C69C4C22C42A89A2
:1012340099E32685AD3F938484048044DC40FD1704
:1012440063D607009C40B9CF8440C5BF0317C400D0
:1012540039E7C177850723220406232004002322CB
:101264000400232404005CC423280400232A04006B
:10127400232C0400214681451305C405EFF02FC437
:10128400232A0402232C0402232404042326040412
:101294002285B240224492440249410182801304CF
:1012A400840671BF91454A85C13588C051FDB14757
:1012B4002320F9000144E9BF797122D44AD052CCE9
:1012C40056CA5AC85EC606D626D24ECE2A8AAE8AD8
:1012D400130485040149054BFD5B09ECB25022540B
:1012E4004A8592540259F249624AD24A424BB24B5D
:1012F40045618280044483294400FD1963D40900B4
:101304000040E1BF83D7C400637BFB008397E40004
:1013140063877701A6855285829A3369A9009384ED
:101324008406E1BF1971A6DAAE848395E500A2DCD8
:1013340086DE328463DC050083D7C40023A0060064
:1013440093F7070885E7930700401DA0300836C6C9
:10135400EF00702CB246E34105FE7247BD67F98F7A
:101364007977BA9793B717009CC2F1BF930700042B
:101374001CC0F6506654D65401450961828083D757
:10138400C500011122CC06CE26CA4AC8898B2E84F8
:1013940089CF930774041CC01CC885475CC8F240FD
:1013A4006244D24442490561828074003000AA84B8
:1013B400953FA2452A892685112A01ED8317C40089
:1013C40013F7072069FFF19B93E727002316F40026
:1013D400C9B7970700009387C7D89CD48357C40024
:1013E40008C008C893E707082316F400A2475CC89E
:1013F400B24791CF8315E4002685EF00702401C91C
:101404008357C400F19B93E717002316F400835716
:10141400C4003369F9002316240151B7DDC583A73D
:10142400C5FF411122C406C626C21384C5FF63D377
:1014340007003E94AA84EF009027973700209387F3
:10144400A7C29C4391EF232204009737002023ADC9
:1014540087C02244B2402685924441016F00502542
:10146400637EF40014403307D4006396E700984386
:10147400DC43369718C05CC0C9BFBA87D84319C3C8
:10148400E37DE4FE94433386D700631F8600104057
:10149400B29694C33386D700E31DC7FA104358436A
:1014A400B29694C3D8C375B76375C400B1479CC0E2
:1014B4004DB71040B306C4006316D7001443584315
:1014C400B29614C058C0C0C369B78280011126CA3D
:1014D40093843500F19806CE22CC4AC84EC6A104A6
:1014E400B14763F5F404B14463E4B4042A89EF001A
:1014F400101C9387818098433A8429E49387C180A0
:101504009C4399E781454A85EF00607D23A6A1802D
:10151400A6854A85EF00A07CFD5963193507B147BC
:101524002320F9004A85EF00B01829A0E3DE04FA6D
:10153400B1471CC10145F2406244D2444249B24918
:10154400056182801C40858F63CF0702AD4663F638
:10155400F6001CC03E9404C031A05C4063138702B3
:1015640023A4F1804A85EF00B0141305B400930757
:10157400440061993307F5405DDF3A94898F1CC0BC
:101584005DBF5CC3C5B72287404085BF13043500E7
:101594007198E30285FCB305A4404A858927E31CBE
:1015A40035FBB5BF1C46FD171CC663DA0700184E91
:1015B40063C5E700A9476394F5006FF0AFFC1C42D4
:1015C4002E851387170018C22380B700828001116B
:1015D40022CC26CA4AC84EC652C406CE2A89AE892F
:1015E4003284B304D6007D5A63149400014509A8DB
:1015F400834504004E864A8575370504E31645FF86
:10160400F2406244D2444249B249224A056182808E
:10161400357122CD26CB4AC94EC706CF52C556C313
:101624005AC1DEDEE2DCE6DAAA89AE843289368487
:1016340001C51C4D91E3A53E97170000938787A130
:10164400639CF40C83A4490083D7C400A18BFDC719
:101654009C48EDC793070002A304F102930700031B
:1016640002D22305F10222C6930B5002971A0000FE
:10167400938A4AA2054C294B4A848347040099C3A0
:101684006391770FB30C2441638D0C00E6864A8680
:10169400A6854E852D3FFD576307F51E9256E696A7
:1016A40036D2834704006380071EFD5713091400D4
:1016B40002C802CE3ECA02CCA309010482D48345E7
:1016C400090015465685EF00E07C13041900C24753
:1016D40059E913F7070109C713070002A309E10435
:1016E40013F7870009C71307B002A309E10483466F
:1016F40009001307A0026380E608F2474A84814682
:1017040025460347040093051400130707FD637976
:10171400E60AB5CA3ECE85A8971700009387879539
:101724006395F40083A4890005B797170000938795
:101734006790E39BF4F083A4C90039B7A6854E856E
:10174400EFF04FF001D97D55FA406A44DA444A4932
:10175400BA492A4A9A4A0A4BF65B665CD65C0D6122
:101764008280050419BF330555413315AC00C98F78
:101774003EC82289A9B7324793064700184336C6A4
:10178400634907023ACE034704009307E002631F4C
:10179400F704034714009307A002631BF702B24740
:1017A4000904138747009C433AC663C107023ECA33
:1017B40035A83307E04093E727003ACE3EC8E1B7A7
:1017C400B387670385462E84BA9725BFFD57C5B7EF
:1017D400050402CA81468147254603470400930550
:1017E4001400130707FD6376E606F1F2834504004F
:1017F4000D46171500001305658A692D11CD97173D
:1018040000009387A7891D8D93070004B397A70051
:10181400424505045D8D2AC8834504001946171501
:1018240000001305E587130914002304B1029D2564
:101834003DC197E7FFFF9387A77C95E74247B247EF
:101844001377071009CF91073EC69257D2973ED21D
:1018540025B5B387670385462E84BA97BDBF9D0718
:10186400E19BA107D5B7780097060000938666D65A
:1018740026860C084E8597000000E7000000FD57FF
:101884002A8AE314F5FC83D7C40093F70704E39C86
:1018940007EA125555BD780097060000938666D373
:1018A40026860C084E85012AD9BF797156CA9C49EF
:1018B400BA8A984522D426D24ECE52CC06D64AD0E5
:1018C4005AC85EC6AA892E84B284368A63D3E700D6
:1018D400BA879CC00347340419C385079CC01C40C5
:1018E40093F7070281C79C4089079CC00329040021
:1018F40013796900631A0900130B9401FD5B5C44BE
:101904009840998F634CF9041C408346340493F740
:101914000702B336D000A5EB13063404D2854E85F6
:10192400829AFD576303F5041C4011469840998B35
:10193400544481446397C700B384E64063D30400EE
:1019440081441C4418486354F700998FBE9401499C
:1019540069047D5B63982405014509A885465A8678
:10196400D2854E85829A631E75017D55B2502254EC
:1019740092540259F249624AD24A424BB24B4561EF
:1019840082800509ADBF3307D40013060003A30109
:10199400C7040347540493871600A2978906A381BA
:1019A400E7049DBF85462286D2854E85829AE30E42
:1019B40065FB050945B7797122D426D24AD04ECEAB
:1019C40006D652CC56CA5AC8B68983C6850193072F
:1019D400E0063289AA842E84138635046380F61EB9
:1019E40063E2D706930730066382F60A63EDD700F5
:1019F400638A061E930780056386F616930A2404F9
:101A04002301D40469A8930740066386F60093076C
:101A14009006E395F6FE1C40084393F607089305E9
:101A24004500C1C21C410CC363D807001307D00290
:101A3400B307F040A301E404970600009386C6664A
:101A4400294765A0930730076382F61A63EFD7002E
:101A54009307F006638FF60493070007E390F6FA02
:101A64009C4193E707029CC109A89307500763822E
:101A7400F60493078007E393F6F893078007A3021D
:101A8400F4049706000093866663DDA01C43938AE2
:101A94002504938647009C4314C32381F50485479A
:101AA400ADA293F607041C410CC3BDDEC207C18777
:101AB400A5BF0C401C4313F80508138547006305B4
:101AC400080008C39C4339A093F5050408C3FDD955
:101AD40083D707001307F006638AE60C9706000015
:101AE4009386865C2947A30104044C400CC463C557
:101AF400050008406D9908C099E3B28A91CDB28A75
:101B0400B3F5E702FD1AB69583C505002380BA0034
:101B1400B3D5E70263F2E70AA147631EF7001C404E
:101B2400858B91CB58401C4863C7E700930700039B
:101B3400A38FFAFEFD1A3306564110C84E87CA8693
:101B44007000A285268595337D5A6314450D7D5515
:101B5400B250225492540259F249624AD24A424B38
:101B640045618280A382D504970600009386C653FC
:101B74000C40084313F805081C41110563000802D2
:101B840008C313F7150001C793E505020CC04147CC
:101B9400B9FB0C4093F5F5FD0CC0B1B713F805047F
:101BA40008C3E30008FEC207C183E1BF9706000033
:101BB4009386864F214705BFAE8799B794411C434E
:101BC400CC4913F80608138547006306080008C3C8
:101BD4009C438CC301A808C393F606049C43F5DA1E
:101BE4002390B70023280400B28A89BF1C43D04144
:101BF40081459386470014C383AA07005685592C50
:101C040001C53305554148C05C401CC8A301040408
:101C140035B714485686CA8526858299E30945F363
:101C24001C40898B8DE7B2474844E353F5F23E8567
:101C340005B785465686CA8526858299E30965F1E6
:101C4400050A5C443247998FE345FAFEE9BF014A2D
:101C5400930A94017D5BF5B7011122CC06CE2A8448
:101C640009C91C4D99E732C62EC4EFF04FD4324651
:101C7400A245970700009387E73D6316F60250409C
:101C84001C46FD171CC663D00704184E63C7E70043
:101C940093F7F50F29476398E70222856244F240DF
:101CA40005616FF02F8E970700009387A73C63149C
:101CB400F6001044F1B7970700009387A737E311A4
:101CC400F6FC504475BF1C4213F5F50F138717003B
:101CD40018C22380B700F24062440561828041113A
:101CE40022C42A842E8523AA01C006C63D24FD579A
:101CF4006317F500938741C19C4391C31CC0B24054
:101D0400224441018280411122C42E848395E5003E
:101D140006C64522634905007C48AA977CC8B240A0
:101D24002244410182808357C4007D777D17F98F57
:101D34002316F400EDB783D7C500011122CC26CABF
:101D44004AC84EC606CE93F70710AA842E84328959
:101D5400B68991C78395E5008946014631228357A8
:101D6400C4007D777D17F98F2316F4008315E400F2
:101D74006244F240CE864A86B24942492685D2441C
:101D840005613DA8411122C42E848395E50006C651
:101D9400E128FD570357C400631BF500FD77FD17C9
:101DA400F98F2316F400B2402244410182808567F2
:101DB400D98F2316F40068C8FDB78395E50005A8FC
:101DC400411122C42A842E85B285368623AA01C0F5
:101DD40006C6EFE0FFDCFD576317F500938741C1AA
:101DE4009C4391C31CC0B2402244410182804111F2
:101DF40022C42A842E8523AA01C006C6CD20FD57FD
:101E04006317F500938741C19C4391C31CC0B24042
:101E1400224441018280411122C42A842E85B28544
:101E240023AA01C006C6D120FD576317F500938786
:101E340041C19C4391C31CC0B240224441018280F1
:101E4400411122C42A842E8523AA01C006C6652016
:101E5400FD576317F500938741C19C4391C31CC090
:101E6400B240224441018280411122C42A842E8539
:101E7400B285368623AA01C006C66120FD576317C2
:101E8400F500938741C19C4391C31CC0B2402244D6
:101E94004101828093F5F50F2A966314C50001452C
:101EA400828083470500E38DB7FE0505FDB7828078
:101EB4008280411122C42A842E85B285368623AAC3
:101EC40001C006C6A920FD576317F500938741C1D9
:101ED4009C4391C31CC0B2402244410182809307B9
:101EE400800523AAF1C07D5582809307800523AA2B
:101EF400F1C07D5582809307800523AAF1C0014576
:101F040082809307800523AAF1C07D5582809307C0
:101F1400800523AAF1C07D558280938701819C436B
:101F240091C73E9523A8A1803E858280938781C175
:101F34003E9523A8A1803E8582800000537461727F
:101F44007420404368697049443D253032580A0082
:101F5400454550524F4D5F524541442E2E2E0000B0
:101F64002530327820000000454550524F4D5F45E2
:101F7400524153453D253032780A000045455052C0
:101F84004F4D5F57524954453D253032780A000081
:101F94004745545F554E495155455F49442E2E2EB1
:101FA40000000000466C6173684D41434144445253
:101FB4004553532E2E2E0000464C4153485F524544
:101FC40041442032306B2E2E2E000000464C4153EB
:101FD400485F524F4D5F45524153453D253032785D
:101FE4000A000000466C61736857726974653D2588
:101FF4003032780A00000000466C617368566572DE
:102004006966793D253032780A000000464C415318
:10201400485F524541442E2E2E000000B4EAFFFFD3
:10202400DCEAFFFF04EBFFFF1CEBFFFF36EBFFFFD7
:10203400000000000000000000000000000000009C
:10204400000000000000000000000000000000008C
:10205400000000000000000000000000000000007C
:10206400000000000000000000000000000000006C
:10207400000000000000000000000000000000005C
:10208400000000000000000000000000000000004C
:10209400232D302B20000000686C4C0065666745DA
:1020A400464700003031323334353637383941420F
:1020B400434445460000000030313233343536376E
:1020C40038396162636465660000000000400020E6
:1020D40000000000542000007420000034200000A0
:1020E40000000000000000000000000000000000EC
:1020F40000000000000000000000000000000000DC
:1021040000000000000000000000000000000000CB
:1021140000000000000000000000000000000000BB
:1021240000000000000000000000000000000000AB
:08213400004000200000000043
:00000001FF
